{
  "contractName": "SBEToken",
  "abi": [
    {
      "inputs": [],
      "stateMutability": "nonpayable",
      "type": "constructor"
    },
    {
      "anonymous": false,
      "inputs": [
        {
          "indexed": false,
          "internalType": "address",
          "name": "previousAdmin",
          "type": "address"
        },
        {
          "indexed": false,
          "internalType": "address",
          "name": "newAdmin",
          "type": "address"
        }
      ],
      "name": "AdminChanged",
      "type": "event"
    },
    {
      "anonymous": false,
      "inputs": [
        {
          "indexed": true,
          "internalType": "address",
          "name": "owner",
          "type": "address"
        },
        {
          "indexed": true,
          "internalType": "address",
          "name": "spender",
          "type": "address"
        },
        {
          "indexed": false,
          "internalType": "uint256",
          "name": "value",
          "type": "uint256"
        }
      ],
      "name": "Approval",
      "type": "event"
    },
    {
      "anonymous": false,
      "inputs": [
        {
          "indexed": true,
          "internalType": "address",
          "name": "beacon",
          "type": "address"
        }
      ],
      "name": "BeaconUpgraded",
      "type": "event"
    },
    {
      "anonymous": false,
      "inputs": [
        {
          "indexed": false,
          "internalType": "uint8",
          "name": "version",
          "type": "uint8"
        }
      ],
      "name": "Initialized",
      "type": "event"
    },
    {
      "anonymous": false,
      "inputs": [
        {
          "indexed": true,
          "internalType": "address",
          "name": "previousOwner",
          "type": "address"
        },
        {
          "indexed": true,
          "internalType": "address",
          "name": "newOwner",
          "type": "address"
        }
      ],
      "name": "OwnershipTransferred",
      "type": "event"
    },
    {
      "anonymous": false,
      "inputs": [
        {
          "indexed": true,
          "internalType": "address",
          "name": "from",
          "type": "address"
        },
        {
          "indexed": true,
          "internalType": "address",
          "name": "to",
          "type": "address"
        },
        {
          "indexed": false,
          "internalType": "uint256",
          "name": "value",
          "type": "uint256"
        }
      ],
      "name": "Transfer",
      "type": "event"
    },
    {
      "anonymous": false,
      "inputs": [
        {
          "indexed": true,
          "internalType": "address",
          "name": "implementation",
          "type": "address"
        }
      ],
      "name": "Upgraded",
      "type": "event"
    },
    {
      "anonymous": false,
      "inputs": [
        {
          "indexed": false,
          "internalType": "address",
          "name": "to",
          "type": "address"
        },
        {
          "indexed": false,
          "internalType": "uint256",
          "name": "amount",
          "type": "uint256"
        },
        {
          "indexed": false,
          "internalType": "uint256",
          "name": "timestamp",
          "type": "uint256"
        }
      ],
      "name": "mintEvent",
      "type": "event"
    },
    {
      "anonymous": false,
      "inputs": [
        {
          "indexed": false,
          "internalType": "uint256",
          "name": "orderId",
          "type": "uint256"
        },
        {
          "indexed": false,
          "internalType": "address",
          "name": "user",
          "type": "address"
        },
        {
          "indexed": false,
          "internalType": "address",
          "name": "adminAddress",
          "type": "address"
        },
        {
          "indexed": false,
          "internalType": "uint256",
          "name": "amount",
          "type": "uint256"
        },
        {
          "indexed": false,
          "internalType": "uint256",
          "name": "_discount",
          "type": "uint256"
        },
        {
          "indexed": false,
          "internalType": "uint256",
          "name": "timestamp",
          "type": "uint256"
        }
      ],
      "name": "paymentEvent",
      "type": "event"
    },
    {
      "anonymous": false,
      "inputs": [
        {
          "indexed": false,
          "internalType": "uint256",
          "name": "orderId",
          "type": "uint256"
        },
        {
          "indexed": false,
          "internalType": "address",
          "name": "user",
          "type": "address"
        },
        {
          "indexed": false,
          "internalType": "address",
          "name": "adminAddress",
          "type": "address"
        },
        {
          "indexed": false,
          "internalType": "uint256",
          "name": "amount",
          "type": "uint256"
        },
        {
          "indexed": false,
          "internalType": "uint256",
          "name": "coinRefund",
          "type": "uint256"
        },
        {
          "indexed": false,
          "internalType": "uint256",
          "name": "timestamp",
          "type": "uint256"
        }
      ],
      "name": "refundEvent",
      "type": "event"
    },
    {
      "anonymous": false,
      "inputs": [
        {
          "indexed": false,
          "internalType": "address",
          "name": "from",
          "type": "address"
        },
        {
          "indexed": false,
          "internalType": "address",
          "name": "to",
          "type": "address"
        },
        {
          "indexed": false,
          "internalType": "uint256",
          "name": "amount",
          "type": "uint256"
        },
        {
          "indexed": false,
          "internalType": "uint256",
          "name": "timestamp",
          "type": "uint256"
        }
      ],
      "name": "transferEvent",
      "type": "event"
    },
    {
      "inputs": [
        {
          "internalType": "address",
          "name": "owner",
          "type": "address"
        },
        {
          "internalType": "address",
          "name": "spender",
          "type": "address"
        }
      ],
      "name": "allowance",
      "outputs": [
        {
          "internalType": "uint256",
          "name": "",
          "type": "uint256"
        }
      ],
      "stateMutability": "view",
      "type": "function",
      "constant": true
    },
    {
      "inputs": [
        {
          "internalType": "address",
          "name": "spender",
          "type": "address"
        },
        {
          "internalType": "uint256",
          "name": "amount",
          "type": "uint256"
        }
      ],
      "name": "approve",
      "outputs": [
        {
          "internalType": "bool",
          "name": "",
          "type": "bool"
        }
      ],
      "stateMutability": "nonpayable",
      "type": "function"
    },
    {
      "inputs": [
        {
          "internalType": "address",
          "name": "account",
          "type": "address"
        }
      ],
      "name": "balanceOf",
      "outputs": [
        {
          "internalType": "uint256",
          "name": "",
          "type": "uint256"
        }
      ],
      "stateMutability": "view",
      "type": "function",
      "constant": true
    },
    {
      "inputs": [
        {
          "internalType": "uint256",
          "name": "amount",
          "type": "uint256"
        }
      ],
      "name": "burn",
      "outputs": [],
      "stateMutability": "nonpayable",
      "type": "function"
    },
    {
      "inputs": [
        {
          "internalType": "address",
          "name": "account",
          "type": "address"
        },
        {
          "internalType": "uint256",
          "name": "amount",
          "type": "uint256"
        }
      ],
      "name": "burnFrom",
      "outputs": [],
      "stateMutability": "nonpayable",
      "type": "function"
    },
    {
      "inputs": [],
      "name": "decimals",
      "outputs": [
        {
          "internalType": "uint8",
          "name": "",
          "type": "uint8"
        }
      ],
      "stateMutability": "view",
      "type": "function",
      "constant": true
    },
    {
      "inputs": [
        {
          "internalType": "address",
          "name": "spender",
          "type": "address"
        },
        {
          "internalType": "uint256",
          "name": "subtractedValue",
          "type": "uint256"
        }
      ],
      "name": "decreaseAllowance",
      "outputs": [
        {
          "internalType": "bool",
          "name": "",
          "type": "bool"
        }
      ],
      "stateMutability": "nonpayable",
      "type": "function"
    },
    {
      "inputs": [
        {
          "internalType": "address",
          "name": "spender",
          "type": "address"
        },
        {
          "internalType": "uint256",
          "name": "addedValue",
          "type": "uint256"
        }
      ],
      "name": "increaseAllowance",
      "outputs": [
        {
          "internalType": "bool",
          "name": "",
          "type": "bool"
        }
      ],
      "stateMutability": "nonpayable",
      "type": "function"
    },
    {
      "inputs": [],
      "name": "name",
      "outputs": [
        {
          "internalType": "string",
          "name": "",
          "type": "string"
        }
      ],
      "stateMutability": "view",
      "type": "function",
      "constant": true
    },
    {
      "inputs": [],
      "name": "owner",
      "outputs": [
        {
          "internalType": "address",
          "name": "",
          "type": "address"
        }
      ],
      "stateMutability": "view",
      "type": "function",
      "constant": true
    },
    {
      "inputs": [],
      "name": "proxiableUUID",
      "outputs": [
        {
          "internalType": "bytes32",
          "name": "",
          "type": "bytes32"
        }
      ],
      "stateMutability": "view",
      "type": "function",
      "constant": true
    },
    {
      "inputs": [],
      "name": "renounceOwnership",
      "outputs": [],
      "stateMutability": "nonpayable",
      "type": "function"
    },
    {
      "inputs": [],
      "name": "symbol",
      "outputs": [
        {
          "internalType": "string",
          "name": "",
          "type": "string"
        }
      ],
      "stateMutability": "view",
      "type": "function",
      "constant": true
    },
    {
      "inputs": [],
      "name": "totalSupply",
      "outputs": [
        {
          "internalType": "uint256",
          "name": "",
          "type": "uint256"
        }
      ],
      "stateMutability": "view",
      "type": "function",
      "constant": true
    },
    {
      "inputs": [
        {
          "internalType": "address",
          "name": "to",
          "type": "address"
        },
        {
          "internalType": "uint256",
          "name": "amount",
          "type": "uint256"
        }
      ],
      "name": "transfer",
      "outputs": [
        {
          "internalType": "bool",
          "name": "",
          "type": "bool"
        }
      ],
      "stateMutability": "nonpayable",
      "type": "function"
    },
    {
      "inputs": [
        {
          "internalType": "address",
          "name": "from",
          "type": "address"
        },
        {
          "internalType": "address",
          "name": "to",
          "type": "address"
        },
        {
          "internalType": "uint256",
          "name": "amount",
          "type": "uint256"
        }
      ],
      "name": "transferFrom",
      "outputs": [
        {
          "internalType": "bool",
          "name": "",
          "type": "bool"
        }
      ],
      "stateMutability": "nonpayable",
      "type": "function"
    },
    {
      "inputs": [
        {
          "internalType": "address",
          "name": "newOwner",
          "type": "address"
        }
      ],
      "name": "transferOwnership",
      "outputs": [],
      "stateMutability": "nonpayable",
      "type": "function"
    },
    {
      "inputs": [
        {
          "internalType": "address",
          "name": "newImplementation",
          "type": "address"
        }
      ],
      "name": "upgradeTo",
      "outputs": [],
      "stateMutability": "nonpayable",
      "type": "function"
    },
    {
      "inputs": [
        {
          "internalType": "address",
          "name": "newImplementation",
          "type": "address"
        },
        {
          "internalType": "bytes",
          "name": "data",
          "type": "bytes"
        }
      ],
      "name": "upgradeToAndCall",
      "outputs": [],
      "stateMutability": "payable",
      "type": "function",
      "payable": true
    },
    {
      "inputs": [
        {
          "internalType": "address",
          "name": "to",
          "type": "address"
        },
        {
          "internalType": "uint256",
          "name": "amount",
          "type": "uint256"
        }
      ],
      "name": "mint",
      "outputs": [],
      "stateMutability": "nonpayable",
      "type": "function"
    },
    {
      "inputs": [
        {
          "internalType": "uint256",
          "name": "_discount",
          "type": "uint256"
        },
        {
          "internalType": "uint256",
          "name": "orderId",
          "type": "uint256"
        }
      ],
      "name": "makePayment",
      "outputs": [],
      "stateMutability": "payable",
      "type": "function",
      "payable": true
    },
    {
      "inputs": [
        {
          "internalType": "uint256",
          "name": "_amount",
          "type": "uint256"
        }
      ],
      "name": "transferToken",
      "outputs": [],
      "stateMutability": "nonpayable",
      "type": "function"
    },
    {
      "inputs": [
        {
          "internalType": "address",
          "name": "_user",
          "type": "address"
        },
        {
          "internalType": "uint256",
          "name": "_amount",
          "type": "uint256"
        }
      ],
      "name": "adminTransferToken",
      "outputs": [],
      "stateMutability": "nonpayable",
      "type": "function"
    },
    {
      "inputs": [],
      "name": "clearContractBalance",
      "outputs": [],
      "stateMutability": "nonpayable",
      "type": "function"
    },
    {
      "inputs": [
        {
          "internalType": "address",
          "name": "user",
          "type": "address"
        },
        {
          "internalType": "uint256",
          "name": "_coinRefund",
          "type": "uint256"
        },
        {
          "internalType": "uint256",
          "name": "orderId",
          "type": "uint256"
        }
      ],
      "name": "refund",
      "outputs": [],
      "stateMutability": "payable",
      "type": "function",
      "payable": true
    }
  ],
  "bytecode": "0x60a06040523073ffffffffffffffffffffffffffffffffffffffff1660809073ffffffffffffffffffffffffffffffffffffffff168152503480156200004457600080fd5b5062000055620000ac60201b60201c565b62000065620002a560201b60201c565b61012d60006101000a81548173ffffffffffffffffffffffffffffffffffffffff021916908373ffffffffffffffffffffffffffffffffffffffff16021790555062000b31565b60008060019054906101000a900460ff16159050808015620000de5750600160008054906101000a900460ff1660ff16105b806200011a5750620000fb30620002cf60201b620010e11760201c565b158015620001195750600160008054906101000a900460ff1660ff16145b5b6200015c576040517f08c379a00000000000000000000000000000000000000000000000000000000081526004016200015390620006a9565b60405180910390fd5b60016000806101000a81548160ff021916908360ff16021790555080156200019a576001600060016101000a81548160ff0219169083151502179055505b620002166040518060400160405280600981526020017f53686f70427945544800000000000000000000000000000000000000000000008152506040518060400160405280600381526020017f5342450000000000000000000000000000000000000000000000000000000000815250620002f260201b60201c565b620002266200035a60201b60201c565b62000236620003ae60201b60201c565b620002466200041260201b60201c565b8015620002a25760008060016101000a81548160ff0219169083151502179055507f7f26b83ff96e1f2b6a682f133852f6798a09c465da95921460cefb3847402498600160405162000299919062000725565b60405180910390a15b50565b6000609760009054906101000a900473ffffffffffffffffffffffffffffffffffffffff16905090565b6000808273ffffffffffffffffffffffffffffffffffffffff163b119050919050565b600060019054906101000a900460ff1662000344576040517f08c379a00000000000000000000000000000000000000000000000000000000081526004016200033b90620007b8565b60405180910390fd5b6200035682826200046660201b60201c565b5050565b600060019054906101000a900460ff16620003ac576040517f08c379a0000000000000000000000000000000000000000000000000000000008152600401620003a390620007b8565b60405180910390fd5b565b600060019054906101000a900460ff1662000400576040517f08c379a0000000000000000000000000000000000000000000000000000000008152600401620003f790620007b8565b60405180910390fd5b62000410620004e060201b60201c565b565b600060019054906101000a900460ff1662000464576040517f08c379a00000000000000000000000000000000000000000000000000000000081526004016200045b90620007b8565b60405180910390fd5b565b600060019054906101000a900460ff16620004b8576040517f08c379a0000000000000000000000000000000000000000000000000000000008152600401620004af90620007b8565b60405180910390fd5b8160369081620004c9919062000a4a565b508060379081620004db919062000a4a565b505050565b600060019054906101000a900460ff1662000532576040517f08c379a00000000000000000000000000000000000000000000000000000000081526004016200052990620007b8565b60405180910390fd5b62000552620005466200055460201b60201c565b6200055c60201b60201c565b565b600033905090565b6000609760009054906101000a900473ffffffffffffffffffffffffffffffffffffffff16905081609760006101000a81548173ffffffffffffffffffffffffffffffffffffffff021916908373ffffffffffffffffffffffffffffffffffffffff1602179055508173ffffffffffffffffffffffffffffffffffffffff168173ffffffffffffffffffffffffffffffffffffffff167f8be0079c531659141344cd1fd0a4f28419497f9722a3daafe3b4186f6b6457e060405160405180910390a35050565b600082825260208201905092915050565b7f496e697469616c697a61626c653a20636f6e747261637420697320616c72656160008201527f647920696e697469616c697a6564000000000000000000000000000000000000602082015250565b600062000691602e8362000622565b91506200069e8262000633565b604082019050919050565b60006020820190508181036000830152620006c48162000682565b9050919050565b6000819050919050565b600060ff82169050919050565b6000819050919050565b60006200070d620007076200070184620006cb565b620006e2565b620006d5565b9050919050565b6200071f81620006ec565b82525050565b60006020820190506200073c600083018462000714565b92915050565b7f496e697469616c697a61626c653a20636f6e7472616374206973206e6f74206960008201527f6e697469616c697a696e67000000000000000000000000000000000000000000602082015250565b6000620007a0602b8362000622565b9150620007ad8262000742565b604082019050919050565b60006020820190508181036000830152620007d38162000791565b9050919050565b600081519050919050565b7f4e487b7100000000000000000000000000000000000000000000000000000000600052604160045260246000fd5b7f4e487b7100000000000000000000000000000000000000000000000000000000600052602260045260246000fd5b600060028204905060018216806200085c57607f821691505b60208210810362000872576200087162000814565b5b50919050565b60008190508160005260206000209050919050565b60006020601f8301049050919050565b600082821b905092915050565b600060088302620008dc7fffffffffffffffffffffffffffffffffffffffffffffffffffffffffffffffff826200089d565b620008e886836200089d565b95508019841693508086168417925050509392505050565b6000819050919050565b60006200092b620009256200091f8462000900565b620006e2565b62000900565b9050919050565b6000819050919050565b62000947836200090a565b6200095f620009568262000932565b848454620008aa565b825550505050565b600090565b6200097662000967565b620009838184846200093c565b505050565b5b81811015620009ab576200099f6000826200096c565b60018101905062000989565b5050565b601f821115620009fa57620009c48162000878565b620009cf846200088d565b81016020851015620009df578190505b620009f7620009ee856200088d565b83018262000988565b50505b505050565b600082821c905092915050565b600062000a1f60001984600802620009ff565b1980831691505092915050565b600062000a3a838362000a0c565b9150826002028217905092915050565b62000a5582620007da565b67ffffffffffffffff81111562000a715762000a70620007e5565b5b62000a7d825462000843565b62000a8a828285620009af565b600060209050601f83116001811462000ac2576000841562000aad578287015190505b62000ab9858262000a2c565b86555062000b29565b601f19841662000ad28662000878565b60005b8281101562000afc5784890151825560018201915060208501945060208101905062000ad5565b8683101562000b1c578489015162000b18601f89168262000a0c565b8355505b6001600288020188555050505b505050505050565b60805161334f62000b6960003960008181610762015281816107f00152818161099101528181610a1f0152610acf015261334f6000f3fe6080604052600436106101665760003560e01c806370a08231116100d15780639fc71b311161008a578063bcd3ad0511610064578063bcd3ad0514610520578063d390f97414610537578063dd62ed3e14610553578063f2fde38b1461059057610166565b80639fc71b311461047d578063a457c2d7146104a6578063a9059cbb146104e357610166565b806370a0823114610381578063715018a6146103be5780637331759e146103d557806379cc6790146103fe5780638da5cb5b1461042757806395d89b411461045257610166565b80633659cfe6116101235780633659cfe61461028257806339509351146102ab57806340c10f19146102e857806342966c68146103115780634f1ef2861461033a57806352d1902d1461035657610166565b806306fdde031461016b578063095ea7b31461019657806318160ddd146101d357806318fd8903146101fe57806323b872dd1461021a578063313ce56714610257575b600080fd5b34801561017757600080fd5b506101806105b9565b60405161018d9190611f5c565b60405180910390f35b3480156101a257600080fd5b506101bd60048036038101906101b89190612026565b61064b565b6040516101ca9190612081565b60405180910390f35b3480156101df57600080fd5b506101e861066e565b6040516101f591906120ab565b60405180910390f35b610218600480360381019061021391906120c6565b610678565b005b34801561022657600080fd5b50610241600480360381019061023c9190612119565b610728565b60405161024e9190612081565b60405180910390f35b34801561026357600080fd5b5061026c610757565b6040516102799190612188565b60405180910390f35b34801561028e57600080fd5b506102a960048036038101906102a491906121a3565b610760565b005b3480156102b757600080fd5b506102d260048036038101906102cd9190612026565b6108e8565b6040516102df9190612081565b60405180910390f35b3480156102f457600080fd5b5061030f600480360381019061030a9190612026565b61091f565b005b34801561031d57600080fd5b50610338600480360381019061033391906121d0565b61097b565b005b610354600480360381019061034f9190612332565b61098f565b005b34801561036257600080fd5b5061036b610acb565b60405161037891906123a7565b60405180910390f35b34801561038d57600080fd5b506103a860048036038101906103a391906121a3565b610b84565b6040516103b591906120ab565b60405180910390f35b3480156103ca57600080fd5b506103d3610bcd565b005b3480156103e157600080fd5b506103fc60048036038101906103f79190612026565b610be1565b005b34801561040a57600080fd5b5061042560048036038101906104209190612026565b610c35565b005b34801561043357600080fd5b5061043c610c55565b60405161044991906123d1565b60405180910390f35b34801561045e57600080fd5b50610467610c7f565b6040516104749190611f5c565b60405180910390f35b34801561048957600080fd5b506104a4600480360381019061049f91906121d0565b610d11565b005b3480156104b257600080fd5b506104cd60048036038101906104c89190612026565b610da2565b6040516104da9190612081565b60405180910390f35b3480156104ef57600080fd5b5061050a60048036038101906105059190612026565b610e19565b6040516105179190612081565b60405180910390f35b34801561052c57600080fd5b50610535610e3c565b005b610551600480360381019061054c91906123ec565b610eb0565b005b34801561055f57600080fd5b5061057a6004803603810190610575919061242c565b610fd7565b60405161058791906120ab565b60405180910390f35b34801561059c57600080fd5b506105b760048036038101906105b291906121a3565b61105e565b005b6060603680546105c89061249b565b80601f01602080910402602001604051908101604052809291908181526020018280546105f49061249b565b80156106415780601f1061061657610100808354040283529160200191610641565b820191906000526020600020905b81548152906001019060200180831161062457829003601f168201915b5050505050905090565b600080610656611104565b905061066381858561110c565b600191505092915050565b6000603554905090565b6106806112d5565b60008390508073ffffffffffffffffffffffffffffffffffffffff166108fc349081150290604051600060405180830381858888f193505050501580156106cb573d6000803e3d6000fd5b506106d68484611353565b6106e184338561110c565b7f93789e05f5d7b33a385a1f518de6c73c5ed9a2565425a82a2ee548a32b8e170f82853334874260405161071a969594939291906124cc565b60405180910390a150505050565b600080610733611104565b90506107408582856114b3565b61074b85858561153f565b60019150509392505050565b60006012905090565b7f000000000000000000000000000000000000000000000000000000000000000073ffffffffffffffffffffffffffffffffffffffff163073ffffffffffffffffffffffffffffffffffffffff16036107ee576040517f08c379a00000000000000000000000000000000000000000000000000000000081526004016107e59061259f565b60405180910390fd5b7f000000000000000000000000000000000000000000000000000000000000000073ffffffffffffffffffffffffffffffffffffffff1661082d6117c1565b73ffffffffffffffffffffffffffffffffffffffff1614610883576040517f08c379a000000000000000000000000000000000000000000000000000000000815260040161087a90612631565b60405180910390fd5b61088c81611818565b6108e581600067ffffffffffffffff8111156108ab576108aa612207565b5b6040519080825280601f01601f1916602001820160405280156108dd5781602001600182028036833780820191505090505b506000611823565b50565b6000806108f3611104565b90506109148185856109058589610fd7565b61090f9190612680565b61110c565b600191505092915050565b6109276112d5565b6109318282611353565b61093c82338361110c565b7f9670c8b300c38cd3db8d3f9429dd902e67f418c4dd193e2497f06d20efc7956082824260405161096f939291906126b4565b60405180910390a15050565b61098c610986611104565b82611991565b50565b7f000000000000000000000000000000000000000000000000000000000000000073ffffffffffffffffffffffffffffffffffffffff163073ffffffffffffffffffffffffffffffffffffffff1603610a1d576040517f08c379a0000000000000000000000000000000000000000000000000000000008152600401610a149061259f565b60405180910390fd5b7f000000000000000000000000000000000000000000000000000000000000000073ffffffffffffffffffffffffffffffffffffffff16610a5c6117c1565b73ffffffffffffffffffffffffffffffffffffffff1614610ab2576040517f08c379a0000000000000000000000000000000000000000000000000000000008152600401610aa990612631565b60405180910390fd5b610abb82611818565b610ac782826001611823565b5050565b60007f000000000000000000000000000000000000000000000000000000000000000073ffffffffffffffffffffffffffffffffffffffff163073ffffffffffffffffffffffffffffffffffffffff1614610b5b576040517f08c379a0000000000000000000000000000000000000000000000000000000008152600401610b529061275d565b60405180910390fd5b7f360894a13ba1a3210667c828492db98dca3e2076cc3735a920a3ca505d382bbc60001b905090565b6000603360008373ffffffffffffffffffffffffffffffffffffffff1673ffffffffffffffffffffffffffffffffffffffff168152602001908152602001600020549050919050565b610bd56112d5565b610bdf6000611b69565b565b610be96112d5565b610bf38282610e19565b507f2e48574e89108f272024eec65c8d0780b12cdcaf8768e45745e07a3c3a05fe1333838342604051610c29949392919061277d565b60405180910390a15050565b610c4782610c41611104565b836114b3565b610c518282611991565b5050565b6000609760009054906101000a900473ffffffffffffffffffffffffffffffffffffffff16905090565b606060378054610c8e9061249b565b80601f0160208091040260200160405190810160405280929190818152602001828054610cba9061249b565b8015610d075780601f10610cdc57610100808354040283529160200191610d07565b820191906000526020600020905b815481529060010190602001808311610cea57829003601f168201915b5050505050905090565b610d3e61012d60009054906101000a900473ffffffffffffffffffffffffffffffffffffffff1682610e19565b507f2e48574e89108f272024eec65c8d0780b12cdcaf8768e45745e07a3c3a05fe133361012d60009054906101000a900473ffffffffffffffffffffffffffffffffffffffff168342604051610d979493929190612821565b60405180910390a150565b600080610dad611104565b90506000610dbb8286610fd7565b905083811015610e00576040517f08c379a0000000000000000000000000000000000000000000000000000000008152600401610df7906128d8565b60405180910390fd5b610e0d828686840361110c565b60019250505092915050565b600080610e24611104565b9050610e3181858561153f565b600191505092915050565b610e446112d5565b61012d60009054906101000a900473ffffffffffffffffffffffffffffffffffffffff1673ffffffffffffffffffffffffffffffffffffffff166108fc479081150290604051600060405180830381858888f19350505050158015610ead573d6000803e3d6000fd5b50565b81610eba33610b84565b1015610efb576040517f08c379a0000000000000000000000000000000000000000000000000000000008152600401610ef29061296a565b60405180910390fd5b61012d60009054906101000a900473ffffffffffffffffffffffffffffffffffffffff1673ffffffffffffffffffffffffffffffffffffffff166108fc349081150290604051600060405180830381858888f19350505050158015610f64573d6000803e3d6000fd5b50610f6f3383611991565b7f4877f2cf898fd2ce23c1d1458ce402697e97b3867d4593027c21d02ce874a11b813361012d60009054906101000a900473ffffffffffffffffffffffffffffffffffffffff16348642604051610fcb9695949392919061298a565b60405180910390a15050565b6000603460008473ffffffffffffffffffffffffffffffffffffffff1673ffffffffffffffffffffffffffffffffffffffff16815260200190815260200160002060008373ffffffffffffffffffffffffffffffffffffffff1673ffffffffffffffffffffffffffffffffffffffff16815260200190815260200160002054905092915050565b6110666112d5565b600073ffffffffffffffffffffffffffffffffffffffff168173ffffffffffffffffffffffffffffffffffffffff16036110d5576040517f08c379a00000000000000000000000000000000000000000000000000000000081526004016110cc90612a5d565b60405180910390fd5b6110de81611b69565b50565b6000808273ffffffffffffffffffffffffffffffffffffffff163b119050919050565b600033905090565b600073ffffffffffffffffffffffffffffffffffffffff168373ffffffffffffffffffffffffffffffffffffffff160361117b576040517f08c379a000000000000000000000000000000000000000000000000000000000815260040161117290612aef565b60405180910390fd5b600073ffffffffffffffffffffffffffffffffffffffff168273ffffffffffffffffffffffffffffffffffffffff16036111ea576040517f08c379a00000000000000000000000000000000000000000000000000000000081526004016111e190612b81565b60405180910390fd5b80603460008573ffffffffffffffffffffffffffffffffffffffff1673ffffffffffffffffffffffffffffffffffffffff16815260200190815260200160002060008473ffffffffffffffffffffffffffffffffffffffff1673ffffffffffffffffffffffffffffffffffffffff168152602001908152602001600020819055508173ffffffffffffffffffffffffffffffffffffffff168373ffffffffffffffffffffffffffffffffffffffff167f8c5be1e5ebec7d5bd14f71427d1e84f3dd0314c0f7b2291e5b200ac8c7c3b925836040516112c891906120ab565b60405180910390a3505050565b6112dd611104565b73ffffffffffffffffffffffffffffffffffffffff166112fb610c55565b73ffffffffffffffffffffffffffffffffffffffff1614611351576040517f08c379a000000000000000000000000000000000000000000000000000000000815260040161134890612bed565b60405180910390fd5b565b600073ffffffffffffffffffffffffffffffffffffffff168273ffffffffffffffffffffffffffffffffffffffff16036113c2576040517f08c379a00000000000000000000000000000000000000000000000000000000081526004016113b990612c59565b60405180910390fd5b6113ce60008383611c2f565b80603560008282546113e09190612680565b9250508190555080603360008473ffffffffffffffffffffffffffffffffffffffff1673ffffffffffffffffffffffffffffffffffffffff16815260200190815260200160002060008282546114369190612680565b925050819055508173ffffffffffffffffffffffffffffffffffffffff16600073ffffffffffffffffffffffffffffffffffffffff167fddf252ad1be2c89b69c2b068fc378daa952ba7f163c4a11628f55a4df523b3ef8360405161149b91906120ab565b60405180910390a36114af60008383611c34565b5050565b60006114bf8484610fd7565b90507fffffffffffffffffffffffffffffffffffffffffffffffffffffffffffffffff8114611539578181101561152b576040517f08c379a000000000000000000000000000000000000000000000000000000000815260040161152290612cc5565b60405180910390fd5b611538848484840361110c565b5b50505050565b600073ffffffffffffffffffffffffffffffffffffffff168373ffffffffffffffffffffffffffffffffffffffff16036115ae576040517f08c379a00000000000000000000000000000000000000000000000000000000081526004016115a590612d57565b60405180910390fd5b600073ffffffffffffffffffffffffffffffffffffffff168273ffffffffffffffffffffffffffffffffffffffff160361161d576040517f08c379a000000000000000000000000000000000000000000000000000000000815260040161161490612de9565b60405180910390fd5b611628838383611c2f565b6000603360008573ffffffffffffffffffffffffffffffffffffffff1673ffffffffffffffffffffffffffffffffffffffff168152602001908152602001600020549050818110156116af576040517f08c379a00000000000000000000000000000000000000000000000000000000081526004016116a690612e7b565b60405180910390fd5b818103603360008673ffffffffffffffffffffffffffffffffffffffff1673ffffffffffffffffffffffffffffffffffffffff1681526020019081526020016000208190555081603360008573ffffffffffffffffffffffffffffffffffffffff1673ffffffffffffffffffffffffffffffffffffffff16815260200190815260200160002060008282546117449190612680565b925050819055508273ffffffffffffffffffffffffffffffffffffffff168473ffffffffffffffffffffffffffffffffffffffff167fddf252ad1be2c89b69c2b068fc378daa952ba7f163c4a11628f55a4df523b3ef846040516117a891906120ab565b60405180910390a36117bb848484611c34565b50505050565b60006117ef7f360894a13ba1a3210667c828492db98dca3e2076cc3735a920a3ca505d382bbc60001b611c39565b60000160009054906101000a900473ffffffffffffffffffffffffffffffffffffffff16905090565b6118206112d5565b50565b61184f7f4910fdfa16fed3260ed0e7147f7cc6da11a60208b5b9406d12a635614ffd914360001b611c43565b60000160009054906101000a900460ff16156118735761186e83611c4d565b61198c565b8273ffffffffffffffffffffffffffffffffffffffff166352d1902d6040518163ffffffff1660e01b8152600401602060405180830381865afa9250505080156118db57506040513d601f19601f820116820180604052508101906118d89190612ec7565b60015b61191a576040517f08c379a000000000000000000000000000000000000000000000000000000000815260040161191190612f66565b60405180910390fd5b7f360894a13ba1a3210667c828492db98dca3e2076cc3735a920a3ca505d382bbc60001b811461197f576040517f08c379a000000000000000000000000000000000000000000000000000000000815260040161197690612ff8565b60405180910390fd5b5061198b838383611d06565b5b505050565b600073ffffffffffffffffffffffffffffffffffffffff168273ffffffffffffffffffffffffffffffffffffffff1603611a00576040517f08c379a00000000000000000000000000000000000000000000000000000000081526004016119f79061308a565b60405180910390fd5b611a0c82600083611c2f565b6000603360008473ffffffffffffffffffffffffffffffffffffffff1673ffffffffffffffffffffffffffffffffffffffff16815260200190815260200160002054905081811015611a93576040517f08c379a0000000000000000000000000000000000000000000000000000000008152600401611a8a9061311c565b60405180910390fd5b818103603360008573ffffffffffffffffffffffffffffffffffffffff1673ffffffffffffffffffffffffffffffffffffffff168152602001908152602001600020819055508160356000828254611aeb919061313c565b92505081905550600073ffffffffffffffffffffffffffffffffffffffff168373ffffffffffffffffffffffffffffffffffffffff167fddf252ad1be2c89b69c2b068fc378daa952ba7f163c4a11628f55a4df523b3ef84604051611b5091906120ab565b60405180910390a3611b6483600084611c34565b505050565b6000609760009054906101000a900473ffffffffffffffffffffffffffffffffffffffff16905081609760006101000a81548173ffffffffffffffffffffffffffffffffffffffff021916908373ffffffffffffffffffffffffffffffffffffffff1602179055508173ffffffffffffffffffffffffffffffffffffffff168173ffffffffffffffffffffffffffffffffffffffff167f8be0079c531659141344cd1fd0a4f28419497f9722a3daafe3b4186f6b6457e060405160405180910390a35050565b505050565b505050565b6000819050919050565b6000819050919050565b611c56816110e1565b611c95576040517f08c379a0000000000000000000000000000000000000000000000000000000008152600401611c8c906131e2565b60405180910390fd5b80611cc27f360894a13ba1a3210667c828492db98dca3e2076cc3735a920a3ca505d382bbc60001b611c39565b60000160006101000a81548173ffffffffffffffffffffffffffffffffffffffff021916908373ffffffffffffffffffffffffffffffffffffffff16021790555050565b611d0f83611d32565b600082511180611d1c5750805b15611d2d57611d2b8383611d81565b505b505050565b611d3b81611c4d565b8073ffffffffffffffffffffffffffffffffffffffff167fbc7cd75a20ee27fd9adebab32041f755214dbc6bffa90cc0225b39da2e5c2d3b60405160405180910390a250565b6060611d8c836110e1565b611dcb576040517f08c379a0000000000000000000000000000000000000000000000000000000008152600401611dc290613274565b60405180910390fd5b6000808473ffffffffffffffffffffffffffffffffffffffff1684604051611df391906132db565b600060405180830381855af49150503d8060008114611e2e576040519150601f19603f3d011682016040523d82523d6000602084013e611e33565b606091505b5091509150611e5b82826040518060600160405280602781526020016132f360279139611e65565b9250505092915050565b60608315611e7557829050611ec5565b600083511115611e885782518084602001fd5b816040517f08c379a0000000000000000000000000000000000000000000000000000000008152600401611ebc9190611f5c565b60405180910390fd5b9392505050565b600081519050919050565b600082825260208201905092915050565b60005b83811015611f06578082015181840152602081019050611eeb565b60008484015250505050565b6000601f19601f8301169050919050565b6000611f2e82611ecc565b611f388185611ed7565b9350611f48818560208601611ee8565b611f5181611f12565b840191505092915050565b60006020820190508181036000830152611f768184611f23565b905092915050565b6000604051905090565b600080fd5b600080fd5b600073ffffffffffffffffffffffffffffffffffffffff82169050919050565b6000611fbd82611f92565b9050919050565b611fcd81611fb2565b8114611fd857600080fd5b50565b600081359050611fea81611fc4565b92915050565b6000819050919050565b61200381611ff0565b811461200e57600080fd5b50565b60008135905061202081611ffa565b92915050565b6000806040838503121561203d5761203c611f88565b5b600061204b85828601611fdb565b925050602061205c85828601612011565b9150509250929050565b60008115159050919050565b61207b81612066565b82525050565b60006020820190506120966000830184612072565b92915050565b6120a581611ff0565b82525050565b60006020820190506120c0600083018461209c565b92915050565b6000806000606084860312156120df576120de611f88565b5b60006120ed86828701611fdb565b93505060206120fe86828701612011565b925050604061210f86828701612011565b9150509250925092565b60008060006060848603121561213257612131611f88565b5b600061214086828701611fdb565b935050602061215186828701611fdb565b925050604061216286828701612011565b9150509250925092565b600060ff82169050919050565b6121828161216c565b82525050565b600060208201905061219d6000830184612179565b92915050565b6000602082840312156121b9576121b8611f88565b5b60006121c784828501611fdb565b91505092915050565b6000602082840312156121e6576121e5611f88565b5b60006121f484828501612011565b91505092915050565b600080fd5b600080fd5b7f4e487b7100000000000000000000000000000000000000000000000000000000600052604160045260246000fd5b61223f82611f12565b810181811067ffffffffffffffff8211171561225e5761225d612207565b5b80604052505050565b6000612271611f7e565b905061227d8282612236565b919050565b600067ffffffffffffffff82111561229d5761229c612207565b5b6122a682611f12565b9050602081019050919050565b82818337600083830152505050565b60006122d56122d084612282565b612267565b9050828152602081018484840111156122f1576122f0612202565b5b6122fc8482856122b3565b509392505050565b600082601f830112612319576123186121fd565b5b81356123298482602086016122c2565b91505092915050565b6000806040838503121561234957612348611f88565b5b600061235785828601611fdb565b925050602083013567ffffffffffffffff81111561237857612377611f8d565b5b61238485828601612304565b9150509250929050565b6000819050919050565b6123a18161238e565b82525050565b60006020820190506123bc6000830184612398565b92915050565b6123cb81611fb2565b82525050565b60006020820190506123e660008301846123c2565b92915050565b6000806040838503121561240357612402611f88565b5b600061241185828601612011565b925050602061242285828601612011565b9150509250929050565b6000806040838503121561244357612442611f88565b5b600061245185828601611fdb565b925050602061246285828601611fdb565b9150509250929050565b7f4e487b7100000000000000000000000000000000000000000000000000000000600052602260045260246000fd5b600060028204905060018216806124b357607f821691505b6020821081036124c6576124c561246c565b5b50919050565b600060c0820190506124e1600083018961209c565b6124ee60208301886123c2565b6124fb60408301876123c2565b612508606083018661209c565b612515608083018561209c565b61252260a083018461209c565b979650505050505050565b7f46756e6374696f6e206d7573742062652063616c6c6564207468726f7567682060008201527f64656c656761746563616c6c0000000000000000000000000000000000000000602082015250565b6000612589602c83611ed7565b91506125948261252d565b604082019050919050565b600060208201905081810360008301526125b88161257c565b9050919050565b7f46756e6374696f6e206d7573742062652063616c6c6564207468726f7567682060008201527f6163746976652070726f78790000000000000000000000000000000000000000602082015250565b600061261b602c83611ed7565b9150612626826125bf565b604082019050919050565b6000602082019050818103600083015261264a8161260e565b9050919050565b7f4e487b7100000000000000000000000000000000000000000000000000000000600052601160045260246000fd5b600061268b82611ff0565b915061269683611ff0565b92508282019050808211156126ae576126ad612651565b5b92915050565b60006060820190506126c960008301866123c2565b6126d6602083018561209c565b6126e3604083018461209c565b949350505050565b7f555550535570677261646561626c653a206d757374206e6f742062652063616c60008201527f6c6564207468726f7567682064656c656761746563616c6c0000000000000000602082015250565b6000612747603883611ed7565b9150612752826126eb565b604082019050919050565b600060208201905081810360008301526127768161273a565b9050919050565b600060808201905061279260008301876123c2565b61279f60208301866123c2565b6127ac604083018561209c565b6127b9606083018461209c565b95945050505050565b6000819050919050565b60006127e76127e26127dd84611f92565b6127c2565b611f92565b9050919050565b60006127f9826127cc565b9050919050565b600061280b826127ee565b9050919050565b61281b81612800565b82525050565b600060808201905061283660008301876123c2565b6128436020830186612812565b612850604083018561209c565b61285d606083018461209c565b95945050505050565b7f45524332303a2064656372656173656420616c6c6f77616e63652062656c6f7760008201527f207a65726f000000000000000000000000000000000000000000000000000000602082015250565b60006128c2602583611ed7565b91506128cd82612866565b604082019050919050565b600060208201905081810360008301526128f1816128b5565b9050919050565b7f496e73756666696369656e7420636f696e2062616c616e636520666f7220757360008201527f65722e0000000000000000000000000000000000000000000000000000000000602082015250565b6000612954602383611ed7565b915061295f826128f8565b604082019050919050565b6000602082019050818103600083015261298381612947565b9050919050565b600060c08201905061299f600083018961209c565b6129ac60208301886123c2565b6129b96040830187612812565b6129c6606083018661209c565b6129d3608083018561209c565b6129e060a083018461209c565b979650505050505050565b7f4f776e61626c653a206e6577206f776e657220697320746865207a65726f206160008201527f6464726573730000000000000000000000000000000000000000000000000000602082015250565b6000612a47602683611ed7565b9150612a52826129eb565b604082019050919050565b60006020820190508181036000830152612a7681612a3a565b9050919050565b7f45524332303a20617070726f76652066726f6d20746865207a65726f2061646460008201527f7265737300000000000000000000000000000000000000000000000000000000602082015250565b6000612ad9602483611ed7565b9150612ae482612a7d565b604082019050919050565b60006020820190508181036000830152612b0881612acc565b9050919050565b7f45524332303a20617070726f766520746f20746865207a65726f20616464726560008201527f7373000000000000000000000000000000000000000000000000000000000000602082015250565b6000612b6b602283611ed7565b9150612b7682612b0f565b604082019050919050565b60006020820190508181036000830152612b9a81612b5e565b9050919050565b7f4f776e61626c653a2063616c6c6572206973206e6f7420746865206f776e6572600082015250565b6000612bd7602083611ed7565b9150612be282612ba1565b602082019050919050565b60006020820190508181036000830152612c0681612bca565b9050919050565b7f45524332303a206d696e7420746f20746865207a65726f206164647265737300600082015250565b6000612c43601f83611ed7565b9150612c4e82612c0d565b602082019050919050565b60006020820190508181036000830152612c7281612c36565b9050919050565b7f45524332303a20696e73756666696369656e7420616c6c6f77616e6365000000600082015250565b6000612caf601d83611ed7565b9150612cba82612c79565b602082019050919050565b60006020820190508181036000830152612cde81612ca2565b9050919050565b7f45524332303a207472616e736665722066726f6d20746865207a65726f20616460008201527f6472657373000000000000000000000000000000000000000000000000000000602082015250565b6000612d41602583611ed7565b9150612d4c82612ce5565b604082019050919050565b60006020820190508181036000830152612d7081612d34565b9050919050565b7f45524332303a207472616e7366657220746f20746865207a65726f206164647260008201527f6573730000000000000000000000000000000000000000000000000000000000602082015250565b6000612dd3602383611ed7565b9150612dde82612d77565b604082019050919050565b60006020820190508181036000830152612e0281612dc6565b9050919050565b7f45524332303a207472616e7366657220616d6f756e742065786365656473206260008201527f616c616e63650000000000000000000000000000000000000000000000000000602082015250565b6000612e65602683611ed7565b9150612e7082612e09565b604082019050919050565b60006020820190508181036000830152612e9481612e58565b9050919050565b612ea48161238e565b8114612eaf57600080fd5b50565b600081519050612ec181612e9b565b92915050565b600060208284031215612edd57612edc611f88565b5b6000612eeb84828501612eb2565b91505092915050565b7f45524331393637557067726164653a206e657720696d706c656d656e7461746960008201527f6f6e206973206e6f742055555053000000000000000000000000000000000000602082015250565b6000612f50602e83611ed7565b9150612f5b82612ef4565b604082019050919050565b60006020820190508181036000830152612f7f81612f43565b9050919050565b7f45524331393637557067726164653a20756e737570706f727465642070726f7860008201527f6961626c65555549440000000000000000000000000000000000000000000000602082015250565b6000612fe2602983611ed7565b9150612fed82612f86565b604082019050919050565b6000602082019050818103600083015261301181612fd5565b9050919050565b7f45524332303a206275726e2066726f6d20746865207a65726f2061646472657360008201527f7300000000000000000000000000000000000000000000000000000000000000602082015250565b6000613074602183611ed7565b915061307f82613018565b604082019050919050565b600060208201905081810360008301526130a381613067565b9050919050565b7f45524332303a206275726e20616d6f756e7420657863656564732062616c616e60008201527f6365000000000000000000000000000000000000000000000000000000000000602082015250565b6000613106602283611ed7565b9150613111826130aa565b604082019050919050565b60006020820190508181036000830152613135816130f9565b9050919050565b600061314782611ff0565b915061315283611ff0565b925082820390508181111561316a57613169612651565b5b92915050565b7f455243313936373a206e657720696d706c656d656e746174696f6e206973206e60008201527f6f74206120636f6e747261637400000000000000000000000000000000000000602082015250565b60006131cc602d83611ed7565b91506131d782613170565b604082019050919050565b600060208201905081810360008301526131fb816131bf565b9050919050565b7f416464726573733a2064656c65676174652063616c6c20746f206e6f6e2d636f60008201527f6e74726163740000000000000000000000000000000000000000000000000000602082015250565b600061325e602683611ed7565b915061326982613202565b604082019050919050565b6000602082019050818103600083015261328d81613251565b9050919050565b600081519050919050565b600081905092915050565b60006132b582613294565b6132bf818561329f565b93506132cf818560208601611ee8565b80840191505092915050565b60006132e782846132aa565b91508190509291505056fe416464726573733a206c6f772d6c6576656c2064656c65676174652063616c6c206661696c6564a264697066735822122039848b4a3d4f45be97b826e49f642f5dc784cb68a9263da46c80ab8707426d6d64736f6c63430008110033",
  "immutableReferences": {
    "702": [
      {
        "length": 32,
        "start": 1890
      },
      {
        "length": 32,
        "start": 2032
      },
      {
        "length": 32,
        "start": 2449
      },
      {
        "length": 32,
        "start": 2591
      },
      {
        "length": 32,
        "start": 2767
      }
    ]
  },
  "source": "// SPDX-License-Identifier: MIT\r\npragma solidity 0.8.17;\r\n\r\nimport \"@openzeppelin/contracts-upgradeable/token/ERC20/ERC20Upgradeable.sol\";\r\nimport \"@openzeppelin/contracts-upgradeable/token/ERC20/extensions/ERC20BurnableUpgradeable.sol\";\r\nimport \"@openzeppelin/contracts-upgradeable/access/OwnableUpgradeable.sol\";\r\nimport \"@openzeppelin/contracts-upgradeable/proxy/utils/Initializable.sol\";\r\nimport \"@openzeppelin/contracts-upgradeable/proxy/utils/UUPSUpgradeable.sol\";\r\n\r\ncontract SBEToken is\r\n    Initializable,\r\n    ERC20Upgradeable,\r\n    ERC20BurnableUpgradeable,\r\n    OwnableUpgradeable,\r\n    UUPSUpgradeable\r\n{\r\n    /// @custom:oz-upgrades-unsafe-allow constructor\r\n    constructor() {\r\n        // _disableInitializers();\r\n        initialize();\r\n        admin = payable(owner());\r\n    }\r\n\r\n    address payable admin;\r\n\r\n    event mintEvent(address to, uint256 amount, uint256 timestamp);\r\n    event paymentEvent(\r\n        uint256 orderId,\r\n        address user,\r\n        address adminAddress,\r\n        uint256 amount,\r\n        uint256 _discount,\r\n        uint256 timestamp\r\n    );\r\n    event refundEvent(\r\n        uint256 orderId,\r\n        address user,\r\n        address adminAddress,\r\n        uint256 amount,\r\n        uint256 coinRefund,\r\n        uint256 timestamp\r\n    );\r\n    event transferEvent(\r\n        address from,\r\n        address to,\r\n        uint256 amount,\r\n        uint256 timestamp\r\n    );\r\n\r\n    function initialize() internal initializer {\r\n        __ERC20_init(\"ShopByETH\", \"SBE\");\r\n        __ERC20Burnable_init();\r\n        __Ownable_init();\r\n        __UUPSUpgradeable_init();\r\n    }\r\n\r\n    function mint(address to, uint256 amount) public onlyOwner {\r\n        _mint(to, amount);\r\n        _approve(to, msg.sender, amount);\r\n        emit mintEvent(to, amount, block.timestamp);\r\n    }\r\n\r\n    function _authorizeUpgrade(address newImplementation)\r\n        internal\r\n        override\r\n        onlyOwner\r\n    {}\r\n\r\n    function makePayment(uint256 _discount, uint256 orderId) public payable {\r\n        require(\r\n            balanceOf(msg.sender) >= _discount,\r\n            \"Insufficient coin balance for user.\"\r\n        );\r\n        admin.transfer(msg.value);\r\n        _burn(msg.sender, _discount);\r\n        emit paymentEvent(\r\n            orderId,\r\n            msg.sender,\r\n            admin,\r\n            msg.value,\r\n            _discount,\r\n            block.timestamp\r\n        );\r\n    }\r\n\r\n    function transferToken(uint256 _amount) public {\r\n        transfer(admin, _amount);\r\n        emit transferEvent(msg.sender, admin, _amount, block.timestamp);\r\n    }\r\n\r\n    function adminTransferToken(address _user, uint256 _amount)\r\n        external\r\n        onlyOwner\r\n    {\r\n        transfer(_user, _amount);\r\n        emit transferEvent(msg.sender, _user, _amount, block.timestamp);\r\n    }\r\n\r\n    function clearContractBalance() external onlyOwner {\r\n        admin.transfer(address(this).balance);\r\n    }\r\n\r\n    function refund(\r\n        address user,\r\n        uint256 _coinRefund,\r\n        uint256 orderId\r\n    ) external payable onlyOwner {\r\n        address payable _user = payable(user);\r\n        _user.transfer(msg.value);\r\n        _mint(user, _coinRefund);\r\n        _approve(user, msg.sender, _coinRefund);\r\n        emit refundEvent(\r\n            orderId,\r\n            user,\r\n            msg.sender,\r\n            msg.value,\r\n            _coinRefund,\r\n            block.timestamp\r\n        );\r\n    }\r\n}",
  "sourcePath": "D:\\Projects\\shopping site\\shopbyeth\\SourceCode\\Blockchain\\contracts\\SBEToken.sol",
  "compiler": {
    "name": "solc",
    "version": "0.8.17+commit.8df45f5f.Emscripten.clang"
  },
  "schemaVersion": "3.4.7",
  "updatedAt": "2023-01-23T11:37:33.165Z",
  "networkType": "ethereum",
  "devdoc": {
    "kind": "dev",
    "methods": {
      "allowance(address,address)": {
        "details": "See {IERC20-allowance}."
      },
      "approve(address,uint256)": {
        "details": "See {IERC20-approve}. NOTE: If `amount` is the maximum `uint256`, the allowance is not updated on `transferFrom`. This is semantically equivalent to an infinite approval. Requirements: - `spender` cannot be the zero address."
      },
      "balanceOf(address)": {
        "details": "See {IERC20-balanceOf}."
      },
      "burn(uint256)": {
        "details": "Destroys `amount` tokens from the caller. See {ERC20-_burn}."
      },
      "burnFrom(address,uint256)": {
        "details": "Destroys `amount` tokens from `account`, deducting from the caller's allowance. See {ERC20-_burn} and {ERC20-allowance}. Requirements: - the caller must have allowance for ``accounts``'s tokens of at least `amount`."
      },
      "constructor": {
        "custom:oz-upgrades-unsafe-allow": "constructor"
      },
      "decimals()": {
        "details": "Returns the number of decimals used to get its user representation. For example, if `decimals` equals `2`, a balance of `505` tokens should be displayed to a user as `5.05` (`505 / 10 ** 2`). Tokens usually opt for a value of 18, imitating the relationship between Ether and Wei. This is the value {ERC20} uses, unless this function is overridden; NOTE: This information is only used for _display_ purposes: it in no way affects any of the arithmetic of the contract, including {IERC20-balanceOf} and {IERC20-transfer}."
      },
      "decreaseAllowance(address,uint256)": {
        "details": "Atomically decreases the allowance granted to `spender` by the caller. This is an alternative to {approve} that can be used as a mitigation for problems described in {IERC20-approve}. Emits an {Approval} event indicating the updated allowance. Requirements: - `spender` cannot be the zero address. - `spender` must have allowance for the caller of at least `subtractedValue`."
      },
      "increaseAllowance(address,uint256)": {
        "details": "Atomically increases the allowance granted to `spender` by the caller. This is an alternative to {approve} that can be used as a mitigation for problems described in {IERC20-approve}. Emits an {Approval} event indicating the updated allowance. Requirements: - `spender` cannot be the zero address."
      },
      "name()": {
        "details": "Returns the name of the token."
      },
      "owner()": {
        "details": "Returns the address of the current owner."
      },
      "proxiableUUID()": {
        "details": "Implementation of the ERC1822 {proxiableUUID} function. This returns the storage slot used by the implementation. It is used to validate that the this implementation remains valid after an upgrade. IMPORTANT: A proxy pointing at a proxiable contract should not be considered proxiable itself, because this risks bricking a proxy that upgrades to it, by delegating to itself until out of gas. Thus it is critical that this function revert if invoked through a proxy. This is guaranteed by the `notDelegated` modifier."
      },
      "renounceOwnership()": {
        "details": "Leaves the contract without owner. It will not be possible to call `onlyOwner` functions anymore. Can only be called by the current owner. NOTE: Renouncing ownership will leave the contract without an owner, thereby removing any functionality that is only available to the owner."
      },
      "symbol()": {
        "details": "Returns the symbol of the token, usually a shorter version of the name."
      },
      "totalSupply()": {
        "details": "See {IERC20-totalSupply}."
      },
      "transfer(address,uint256)": {
        "details": "See {IERC20-transfer}. Requirements: - `to` cannot be the zero address. - the caller must have a balance of at least `amount`."
      },
      "transferFrom(address,address,uint256)": {
        "details": "See {IERC20-transferFrom}. Emits an {Approval} event indicating the updated allowance. This is not required by the EIP. See the note at the beginning of {ERC20}. NOTE: Does not update the allowance if the current allowance is the maximum `uint256`. Requirements: - `from` and `to` cannot be the zero address. - `from` must have a balance of at least `amount`. - the caller must have allowance for ``from``'s tokens of at least `amount`."
      },
      "transferOwnership(address)": {
        "details": "Transfers ownership of the contract to a new account (`newOwner`). Can only be called by the current owner."
      },
      "upgradeTo(address)": {
        "details": "Upgrade the implementation of the proxy to `newImplementation`. Calls {_authorizeUpgrade}. Emits an {Upgraded} event."
      },
      "upgradeToAndCall(address,bytes)": {
        "details": "Upgrade the implementation of the proxy to `newImplementation`, and subsequently execute the function call encoded in `data`. Calls {_authorizeUpgrade}. Emits an {Upgraded} event."
      }
    },
    "version": 1
  },
  "userdoc": {
    "kind": "user",
    "methods": {},
    "version": 1
  }
}